:020000040800F2
:1000000000280020210E0008110D0008190D00081D
:10001000210D0008290D0008310D00080000000026
:10002000000000000000000000000000390D000882
:10003000450D000800000000510D00085D0D00088E
:10004000690E0008690E0008690E0008690E0008B4
:10005000690E0008690E0008690E0008690E0008A4
:10006000690E0008690E0008690E0008690E000894
:10007000690E0008690E0008690E0008690E000884
:10008000690E0008690E0008690E0008690E000874
:10009000690E0008690E0008690E0008690E000864
:1000A000690E0008690E0008690E0008690E000854
:1000B000690D0008690E000800000000690E0008C4
:1000C000690E00080000000000000000690E000832
:1000D00000000000690E0008690E00080000000022
:1000E000690E0008690E0008690E00080000000093
:1000F0000000000000000000000000000000000000
:0C01000000000000000000005FF808F1A3
:10010C0010B5054C237833B9044B13B10448AFF345
:10011C0000800123237010BD5C0000200000000053
:10012C004832000808B5034B1BB103490348AFF331
:10013C00008008BD0000000060000020483200086C
:10014C00034613F8012B002AFBD1181A013870470B
:10015C0080B582B000AF00F083FE00F063F800F0D1
:10016C0013F900F09BF800F0E5F800F025FA3222C4
:10017C000521214800F09AFA642205211F4800F05D
:10018C0095FA962205211E4800F090FAC822052106
:10019C001C4800F08BFAFA2205211B4800F086FA65
:1001AC000022C821194800F081FA01227E2118484A
:1001BC0001F042F9174801F0D1FD00237B6000F0FB
:1001CC00ABFB7B6842F20F72934210D9124B1B6847
:1001DC001A461249124802F02FFC1148FFF7B0FFE3
:1001EC00034619460E4800F0CDF900237B607B686E
:1001FC0001337B60E3E700BF1104000851040008E1
:10020C0091040008D10400081105000851050008EC
:10021C00000801407800002008010020603200082E
:10022C000C01002080B590B000AF07F11803282214
:10023C000021184602F022FC3B1D00221A605A6075
:10024C009A60DA601A610223BB610123BB6210233E
:10025C00FB6200237B6307F11803184601F01EF9BB
:10026C000346002B01D000F0A1F90F237B60002383
:10027C00BB600023FB6000233B6100237B613B1DC3
:10028C000021184601F08CFB0346002B01D000F036
:10029C008DF900BF4037BD4680BD000080B586B0EB
:1002AC0000AF07F1080300221A605A609A60DA6006
:1002BC003B4600221A605A601D4B4FF080421A6078
:1002CC001B4B41F63F725A60194B00229A60184B37
:1002DC000922DA60164B00221A61154B00229A6132
:1002EC00134801F0EBFC0346002B01D000F05EF943
:1002FC004FF48053BB6007F1080319460C4801F01A
:10030C0069FE0346002B01D000F050F900233B603E
:10031C0000237B603B461946054802F041F8034632
:10032C00002B01D000F042F900BF1837BD4680BD4C
:10033C007800002080B500AF114B124A1A60104BA8
:10034C004FF4E1325A600E4B00229A600C4B0022A3
:10035C00DA600B4B00221A61094B0C225A61084BD4
:10036C0000229A61064B0022DA61054802F082F8FD
:10037C000346002B01D000F019F900BF80BD00BF6F
:10038C00C00000200038014080B586B000AF07F1F6
:10039C00080300221A605A609A60DA60174B9B6956
:1003AC00164A43F004039361144B9B6903F0040356
:1003BC007B607B68114B9B69104A43F00803936187
:1003CC000E4B9B6903F008033B603B6800227E21C7
:1003DC000B4801F031F87E23BB600123FB60002346
:1003EC003B6102237B6107F108031946044800F0C6
:1003FC00A7FE00BF1837BD4680BD00BF00100240ED
:10040C000008014080B500AF02210A4801F02CF829
:10041C00094B1B681A460949094802F00DFB0848AC
:10042C00FFF78EFE03461946054800F0ABF800BFF7
:10043C0080BD00BF00080140080100207832000890
:10044C000C01002080B500AF04210A4801F00CF823
:10045C00094B1B681A460949094802F0EDFA08488D
:10046C00FFF76EFE03461946054800F08BF800BFF7
:10047C0080BD00BF00080140080100209C3200082C
:10048C000C01002080B500AF08210A4800F0ECFFF9
:10049C00094B1B681A460949094802F0CDFA08486D
:1004AC00FFF74EFE03461946054800F06BF800BFF7
:1004BC0080BD00BF0008014008010020C4320008C4
:1004CC000C01002080B500AF10210A4800F0CCFFD1
:1004DC00094B1B681A460949094802F0ADFA08484D
:1004EC00FFF72EFE03461946054800F04BF800BFF7
:1004FC0080BD00BF0008014008010020E832000860
:10050C000C01002080B500AF20210A4800F0ACFFA0
:10051C00094B1B681A460949094802F08DFA08482C
:10052C00FFF70EFE03461946054800F02BF800BFF6
:10053C0080BD00BF00080140080100200C330008FA
:10054C000C01002080B500AF40210A4800F08CFF60
:10055C00094B1B681A460949094802F06DFA08480C
:10056C00FFF7EEFD03461946054800F00BF800BFF7
:10057C0080BD00BF00080140080100203033000896
:10058C000C01002080B582B000AF786039603B6808
:10059C009AB24FF0FF337968034801F0BBFF00BFFC
:1005AC000837BD4680BD00BFC000002080B400AF3E
:1005BC0072B600BF00BFFDE780B582B000AF374B0D
:1005CC001B68002B03D1364B1B68002B14D0002367
:1005DC003B600AE0314B1B683B60304B1B685B692E
:1005EC002E4A1360386802F071F92C4B1B68002BF3
:1005FC00F0D12B4B00221A6000237B6044E0294988
:10060C007A6813465B001344DB000B4400221A602B
:10061C0024497A6813465B001344DB000B44103307
:10062C0000221A601F497A6813465B001344DB00F2
:10063C000B440C3300221A701A497A6813465B007B
:10064C001344DB000B440C331B78184615497A68AD
:10065C0013465B001344DB000B440833186011494C
:10066C007A6813465B001344DB000B4408331968AB
:10067C000C487A6813465B001344DB0003440433D4
:10068C0019607B6801337B607B68272BB7D9064BDD
:10069C0000221A7000BF0837BD4680BD0C05002033
:1006AC00100500204C01002014050020B0B58AB0C4
:1006BC0000AFF860B9607A60FB68002B05D17B4B0A
:1006CC0003221A704FF0FF33ECE000237B6202E050
:1006DC007B6A01337B627B6A272B09D874497A6A5F
:1006EC0013465B001344DB000B441B68002BEFD15B
:1006FC007B6A282B04D16D4B01221A702823D1E080
:10070C006B497A6A13465B001344DB000B44FA68AE
:10071C001A6067497A6A13465B001344DB000B448A
:10072C000433BA681A6062497A6A13465B00134450
:10073C00DB000B4408337A681A605D497A6A134609
:10074C005B001344DB000B440C3300221A70584935
:10075C007A6A13465B001344DB000B4410337A6A4D
:10076C001A60544B1B68002B2AD1534B1B68002B6F
:10077C0026D1182002F0A2F803461A464D4B1A60F7
:10078C004C4B1B68002B05D1484B02221A704FF0C2
:10079C00FF3387E0474B186845497A6A13465B007C
:1007AC001344DB000B4404461D460FCD0FC495E8E3
:1007BC00030084E803003F4B1B6800225A616BE086
:1007CC00182002F07BF803467B617B69002B05D176
:1007DC00364B02221A704FF0FF3363E078693449CC
:1007EC007A6A13465B001344DB000B4404461D4637
:1007FC000FCD0FC495E8030084E803007B69002249
:10080C005A612C4B1B683B620023FB610023BB61CC
:10081C0009E03B6A5B68BA691344BB613B6AFB61E4
:10082C003B6A5B693B623B6A002B07D07B695A6869
:10083C003B6A5968BB690B449A42EAD87B695A688F
:10084C00BB69D21A7B695A60FB69002B14D1194B16
:10085C001A687B695A61174B1B68002B08D0154B23
:10086C001B6859687B695A68124B1B688A1A5A6054
:10087C00104A7B6913600FE07B693A6A5A61FB6925
:10088C007A695A613B6A002B06D03B6A5A687B69CD
:10089C005B68D21A3B6A5A60074B1B680133064AE5
:1008AC0013607B6A18462837BD46B0BD140500207E
:1008BC004C0100200C0500201005002080B483B0F2
:1008CC0000AF144B1B68002B1ED0124B1B685B68CF
:1008DC00002B04D00F4B1B685A68013A5A600D4B21
:1008EC001B687B6008E07B681B7B0133DAB27B689A
:1008FC001A737B685B697B607B68002B05D07B6817
:10090C005B68002BEFD000E000BF0C37BD4680BC0D
:10091C00704700BF0C05002080B500AF1AE0154BE6
:10092C001B681B68002B15D0124B1B681B68984763
:10093C00104B1B6800221A730E4B1B689B68002B14
:10094C0002D000F0BFF805E00A4B1B681B69184683
:10095C0000F012F8074B1B68002B04D0054B1B68EA
:10096C001B7B002BDBD100F017F900F00FF900BF57
:10097C0080BD00BF0C05002080B586B000AF78604C
:10098C007B68272B09D84B497A6813465B001344C4
:10099C00DB000B441B68002B04D1474B04221A705C
:1009AC00FF2383E043497A6813465B001344DB0062
:1009BC000B4400221A603F497A6813465B001344CB
:1009CC00DB000B44043300221A603A497A68134660
:1009DC005B001344DB000B44083300221A603549DA
:1009EC007A6813465B001344DB000B440C33002283
:1009FC001A7030497A6813465B001344DB000B44D1
:100A0C00103300221A602D4B1B687B6100233B6165
:100A1C0009E07B691B697A689A4208D07B693B6163
:100A2C007B695B697B617B69002BF2D100E000BFC5
:100A3C007B69002B38D0214B1B681A697B691B69B9
:100A4C009A4218D11D4B1B68FB601C4B1B685B69E1
:100A5C001A4A1360194B1B68002B08D0174B1B68E4
:100A6C005968FB685A68154B1B680A445A60F86849
:100A7C0001F02CFF13E07B695A693B695A617B6971
:100A8C005B69002B08D07B695B6959687B695A6884
:100A9C007B695B690A445A60786901F017FF084B5F
:100AAC001B68013B064A13607B68DBB2184618379B
:100ABC00BD4680BD4C010020140500200C05002013
:100ACC001005002080B485B000AF2F4B1B68002BA5
:100ADC0055D02D4B1B683B602B4B1B685B69FB6037
:100AEC000023BB6000237B6009E0FB685B687A68CD
:100AFC0013447B60FB68BB60FB685B69FB60FB6855
:100B0C00002B08D0204B1B689A68FB6859687B68DF
:100B1C000B449A42E9D81C4B1B685B691A4A136058
:100B2C003B689A687B68D21A3B685A60BB68002B9A
:100B3C0014D1154B1A683B685A61134B1B68002B78
:100B4C0008D0114B1B6859683B685A680E4B1B68E0
:100B5C008A1A5A600C4A3B68136011E03B68FA68C9
:100B6C005A61BB683A685A61FB68002B08D0FB6875
:100B7C005A683B685B68D21AFB685A6000E000BF99
:100B8C001437BD4680BC70470C05002080B400AF04
:100B9C0000BFBD4680BC704780B400AF00BFBD46EF
:100BAC0080BC704780B485B000AF154B9B69144A6C
:100BBC0043F001039361124B9B6903F00103BB608B
:100BCC00BB680F4BDB690E4A43F08053D3610C4B6F
:100BDC00DB6903F080537B607B680A4B5B68FB60CE
:100BEC00FB6823F0E063FB60FB6843F08063FB6011
:100BFC00044AFB68536000BF1437BD4680BC704785
:100C0C00001002400000014080B584B000AF786055
:100C1C007B681B68B3F1804F13D10C4BDB690B4A1B
:100C2C0043F00103D361094BDB6903F00103FB6063
:100C3C00FB68002200211C2000F04BFA1C2000F065
:100C4C0064FA00BF1037BD4680BD00BF00100240E3
:100C5C0080B58AB000AF786007F1140300221A60E7
:100C6C005A609A60DA607B681B68224A93423DD1D5
:100C7C00214B9B69204A43F4804393611E4B9B6933
:100C8C0003F480433B613B691B4B9B691A4A43F05D
:100C9C0008039361184B9B6903F00803FB60FB6826
:100CAC0040237B610223BB6103233B6207F11403E6
:100CBC001946124800F044FA80237B610023BB6183
:100CCC000023FB6107F1140319460C4800F038FAB5
:100CDC000B4B5B687B627B6A43F0E0637B627B6AF5
:100CEC0043F004037B62064A7B6A536000BF2837DB
:100CFC00BD4680BD0038014000100240000C014090
:100D0C000000014080B400AF00BFFDE780B400AF2D
:100D1C0000BFFDE780B400AF00BFFDE780B400AFBB
:100D2C0000BFFDE780B400AF00BFFDE780B400AFAB
:100D3C0000BFBD4680BC704780B400AF00BFBD464D
:100D4C0080BC704780B400AF00BFBD4680BC70470C
:100D5C0080B500AF00F0CAF800BF80BD80B500AF11
:100D6C00024801F047F800BF80BD00BF78000020AA
:100D7C0080B586B000AF7860144A154BD31A7B61EE
:100D8C007B693B61134B1B68002B02D1114B124A40
:100D9C001A60104B1A687B6813443A699A4207D25E
:100DAC0001F084FE03460C221A604FF0FF3309E079
:100DBC00084B1B68FB60074B1A687B681344054A99
:100DCC001360FB6818461837BD4680BD002800200C
:100DDC0000040000180500206806002080B400AF55
:100DEC0000BFBD4680BC704780B582B000AF786054
:100DFC007B681B68B3F1804F06D1FFF75FFD044B96
:100E0C001B680133024A136000BF0837BD4680BD22
:100E1C0008010020FFF7E2FF0B480C490C4A0023A5
:100E2C0002E0D458C4500433C4188C42F9D3094A94
:100E3C00094C002301E013600432A242FBD301F001
:100E4C003BFEFFF785F97047000000205C00002096
:100E5C00C83300085C00002068060020FEE7000094
:100E6C0080B500AF084B1B68074A43F010031360B2
:100E7C00032000F023F90F2000F008F8FFF792FE92
:100E8C000023184680BD00BF0020024080B582B010
:100E9C0000AF7860124B1A68124B1B7819464FF44E
:100EAC007A73B3FBF1F3B2FBF3F3184600F03BF9A2
:100EBC000346002B01D001230EE07B680F2B0AD8D0
:100ECC00002279684FF0FF3000F003F9064A7B6886
:100EDC001360002300E0012318460837BD4680BD8F
:100EEC0000000020080000200400002080B400AFA7
:100EFC00054B1B781A46054B1B681344034A1360B9
:100F0C0000BFBD4680BC7047080000201C050020B7
:100F1C0080B400AF024B1B681846BD4680BC7047BE
:100F2C001C05002080B485B000AF78607B6803F0AE
:100F3C000703FB600C4BDB68BB60BA684FF6FF0322
:100F4C001340BB60FB681A02BB68134343F0BF63DA
:100F5C0043F40033BB60044ABB68D36000BF143752
:100F6C00BD4680BC704700BF00ED00E080B400AF10
:100F7C00044BDB681B0A03F007031846BD4680BC14
:100F8C00704700BF00ED00E080B483B000AF0346B3
:100F9C00FB7197F90730002B0BDBFB7903F01F0279
:100FAC00064997F907305B09012000FA02F241F873
:100FBC00232000BF0C37BD4680BC704700E100E029
:100FCC0080B483B000AF03463960FB7197F90730EA
:100FDC00002B0ADB3B68DAB20C4997F90730120197
:100FEC00D2B20B4483F800230AE03B68DAB208491A
:100FFC00FB7903F00F03043B1201D2B20B441A76B7
:10100C0000BF0C37BD4680BC704700BF00E100E05C
:10101C0000ED00E080B489B000AFF860B9607A6090
:10102C00FB6803F00703FB61FB69C3F10703042BA7
:10103C0028BF0423BB61FB690433062B02D9FB696F
:10104C00033B00E000237B614FF0FF32BB6902FAE7
:10105C0003F3DA43BB681A407B699A404FF0FF31C7
:10106C007B6901FA03F3D9437B680B4013431846A1
:10107C002437BD4680BC704780B582B000AF786025
:10108C007B68013BB3F1807F01D301230FE00A4A57
:10109C007B68013B53600F214FF0FF30FFF790FF4F
:1010AC00054B00229A60044B07221A600023184655
:1010BC000837BD4680BD00BF10E000E080B582B0AF
:1010CC0000AF78607868FFF72DFF00BF0837BD468A
:1010DC0080BD80B586B000AF0346B9607A60FB7303
:1010EC0000237B61FFF742FF78617A68B968786901
:1010FC00FFF790FF024697F90F3011461846FFF79D
:10110C005FFF00BF1837BD4680BD80B582B000AF11
:10111C000346FB7197F907301846FFF735FF00BF00
:10112C000837BD4680BD80B582B000AF7860786866
:10113C00FFF7A2FF034618460837BD4680BD0000E6
:10114C0080B48BB000AF7860396000237B620023E1
:10115C003B6261E101227B6A02FA03F3FB613B68AB
:10116C001B68FA691340BB61BA69FB699A4240F08B
:10117C0050813B685B68974A93425ED0954A934294
:10118C0075D8954A934258D0934A93426FD8934A54
:10119C00934252D0914A934269D8914A93424CD08F
:1011AC008F4A934263D88F4A934246D08D4A9342DA
:1011BC005DD8122B2AD8122B59D801A252F823F041
:1011CC00471200082112000833120008751200089B
:1011DC007B1200087B1200087B1200087B120008AF
:1011EC007B1200087B1200087B1200087B1200089F
:1011FC007B1200087B1200087B1200087B1200088F
:10120C007B120008291200083D120008764A93420E
:10121C0013D02CE03B68DB683B6229E03B68DB6861
:10122C0004333B6224E03B68DB6808333B621FE01D
:10123C003B68DB680C333B621AE03B689B68002B15
:10124C0002D104233B6213E03B689B68012B05D160
:10125C0008233B627B68FA691A6109E008233B6248
:10126C007B68FA695A6103E000233B6200E000BF2F
:10127C00BB69FF2B01D87B6801E07B6804337B6181
:10128C00BB69FF2B02D87B6A9B0002E07B6A083BA0
:10129C009B003B617B691A680F213B6901FA03F3E0
:1012AC00DB431A40396A3B6901FA03F31A437B6941
:1012BC001A603B685B6803F08053002B00F0A98038
:1012CC004A4B9B69494A43F001039361474B9B6925
:1012DC0003F00103BB60BB68454A7B6A9B08023381
:1012EC0052F82330FB607B6A03F003039B000F2250
:1012FC0002FA03F3DB43FA681340FB607B683D4A58
:10130C0093420DD07B683C4A934207D07B683B4AA2
:10131C00934201D1022304E0032302E0012300E005
:10132C0000237A6A02F0030292009340FA68134396
:10133C00FB602F497B6A9B080233FA6841F8232033
:10134C003B685B6803F48013002B06D02C4B9A6827
:10135C002B49BB6913438B6006E0294B9A68BB6928
:10136C00DB43274913408B603B685B6803F4001335
:10137C00002B06D0224BDA682149BB691343CB60A2
:10138C0006E01F4BDA68BB69DB431D491340CB6099
:10139C003B685B6803F40033002B06D0184B5A688B
:1013AC001749BB6913434B6006E0154B5A68BB6980
:1013BC00DB43134913404B603B685B6803F4803399
:1013CC00002B1FD00E4B1A680D49BB6913430B60E1
:1013DC001FE000BF0000321000003110000022108E
:1013EC00000021100000121000001110001002402B
:1013FC000000014000080140000C014000100140B9
:10140C00000401400B4B1A68BB69DB4309491340CC
:10141C000B607B6A01337B623B681A687B6A22FA39
:10142C0003F3002B7FF496AE00BF00BF2C37BD46F4
:10143C0080BC70470004014080B483B000AF78607A
:10144C000B467B8013467B707B78002B03D07A880D
:10145C007B681A6103E07B881A047B681A6100BF01
:10146C000C37BD4680BC704780B485B000AF786047
:10147C000B467B807B68DB68FB607A88FB681340DB
:10148C001A04FB68D9437B880B401A437B681A61AA
:10149C0000BF1437BD4680BC7047000080B586B0D5
:1014AC0000AF78607B68002B01D1012372E27B686E
:1014BC001B6803F00103002B00F08780924B5B68E4
:1014CC0003F00C03042B0CD08F4B5B6803F00C0364
:1014DC00082B12D18C4B5B6803F48033B3F5803F3F
:1014EC000BD1894B1B6803F40033002B6CD07B6849
:1014FC005B68002B68D101234CE27B685B68B3F519
:10150C00803F06D1804B1B687F4A43F480331360C5
:10151C002EE07B685B68002B0CD17B4B1B687A4AF6
:10152C0023F480331360784B1B68774A23F48023B1
:10153C0013601DE07B685B68B3F5A02F0CD1724B78
:10154C001B68714A43F4802313606F4B1B686E4A0F
:10155C0043F4803313600BE06B4B1B686A4A23F433
:10156C0080331360684B1B68674A23F48023136035
:10157C007B685B68002B13D0FFF7CAFC386108E06E
:10158C00FFF7C6FC02463B69D31A642B01D903232F
:10159C0000E25D4B1B6803F40033002BF0D014E029
:1015AC00FFF7B6FC386108E0FFF7B2FC02463B6976
:1015BC00D31A642B01D90323ECE1534B1B6803F4BE
:1015CC000033002BF0D100E000BF7B681B6803F0F8
:1015DC000203002B63D04C4B5B6803F00C03002B15
:1015EC000BD0494B5B6803F00C03082B1CD1464B0A
:1015FC005B6803F48033002B16D1434B1B6803F05C
:10160C000203002B05D07B681B69012B01D0012341
:10161C00C0E13D4B1B6823F0F8027B685B69DB0083
:10162C00394913430B603AE07B681B69002B20D0CF
:10163C00364B01221A60FFF76BFC386108E0FFF7AC
:10164C0067FC02463B69D31A022B01D90323A1E1A3
:10165C002D4B1B6803F00203002BF0D02A4B1B68A8
:10166C0023F0F8027B685B69DB00274913430B60AE
:10167C0015E0264B00221A60FFF74AFC386108E09F
:10168C00FFF746FC02463B69D31A022B01D9032310
:10169C0080E11D4B1B6803F00203002BF0D17B682B
:1016AC001B6803F00803002B3AD07B689B69002B66
:1016BC0019D0174B01221A60FFF72AFC386108E099
:1016CC00FFF726FC02463B69D31A022B01D90323F0
:1016DC0060E10D4B5B6A03F00203002BF0D001209C
:1016EC0000F0CEFA1CE00A4B00221A60FFF710FC47
:1016FC0038610FE0FFF70CFC02463B69D31A022B52
:10170C0008D9032346E100BF00100240000042420A
:10171C0080044242924B5B6A03F00203002BE9D136
:10172C007B681B6803F00403002B00F0A6800023E9
:10173C00FB758B4BDB6903F08053002B0DD1884B71
:10174C00DB69874A43F08053D361854BDB6903F037
:10175C008053BB60BB680123FB75824B1B6803F491
:10176C008073002B18D17F4B1B687E4A43F4807327
:10177C001360FFF7CDFB386108E0FFF7C9FB0246A9
:10178C003B69D31A642B01D9032303E1754B1B6806
:10179C0003F48073002BF0D07B68DB68012B06D13F
:1017AC006F4B1B6A6E4A43F0010313622DE07B689A
:1017BC00DB68002B0CD16A4B1B6A694A23F00103CE
:1017CC001362674B1B6A664A23F0040313621CE026
:1017DC007B68DB68052B0CD1614B1B6A604A43F0BC
:1017EC00040313625E4B1B6A5D4A43F001031362F0
:1017FC000BE05B4B1B6A5A4A23F001031362584BF4
:10180C001B6A574A23F0040313627B68DB68002BC6
:10181C0015D0FFF77DFB38610AE0FFF779FB024634
:10182C003B69D31A41F28832934201D90323B1E0C8
:10183C004B4B1B6A03F00203002BEED014E0FFF7B6
:10184C0067FB38610AE0FFF763FB02463B69D31A7A
:10185C0041F28832934201D903239BE0404B1B6A2F
:10186C0003F00203002BEED1FB7D012B05D13C4B89
:10187C00DB693B4A23F08053D3617B68DB69002B27
:10188C0000F08780364B5B6803F00C03082B61D0AB
:10189C007B68DB69022B46D1334B00221A60FFF7C1
:1018AC0037FB386108E0FFF733FB02463B69D31A7C
:1018BC00022B01D903236DE0294B1B6803F0007345
:1018CC00002BF0D17B681B6AB3F5803F08D1244B09
:1018DC005B6823F400327B689B68214913434B609F
:1018EC001F4B5B6823F474127B68196A7B685B6A14
:1018FC000B431B4913434B601B4B01221A60FFF730
:10190C0007FB386108E0FFF703FB02463B69D31A7B
:10191C00022B01D903233DE0114B1B6803F000732C
:10192C00002BF0D035E0104B00221A60FFF7F0FAD4
:10193C00386108E0FFF7ECFA02463B69D31A022B38
:10194C0001D9032326E0064B1B6803F00073002B20
:10195C00F0D11EE07B68DB69012B07D1012319E074
:10196C000010024000700040600042420B4B5B686C
:10197C00FB60FB6803F480327B681B6A9A4206D1D9
:10198C00FB6803F470127B685B6A9A4201D00123F6
:10199C0000E0002318461837BD4680BD00100240F9
:1019AC0080B584B000AF786039607B68002B01D1C2
:1019BC000123D0E06A4B1B6803F007033A689A4294
:1019CC0010D9674B1B6823F0070265493B6813432A
:1019DC000B60634B1B6803F007033A689A4201D013
:1019EC000123B8E07B681B6803F00203002B20D0B6
:1019FC007B681B6803F00403002B05D0594B5B6814
:101A0C00584A43F4E06353607B681B6803F0080397
:101A1C00002B05D0534B5B68524A43F46053536020
:101A2C00504B5B6823F0F0027B689B684D49134375
:101A3C004B607B681B6803F00103002B40D07B6874
:101A4C005B68012B07D1474B1B6803F40033002B59
:101A5C0015D101237FE07B685B68022B07D1414BDA
:101A6C001B6803F00073002B09D1012373E03D4B7D
:101A7C001B6803F00203002B01D101236BE0394BEF
:101A8C005B6823F003027B685B68364913434B6049
:101A9C00FFF73EFAF8600AE0FFF73AFA0246FB68F5
:101AAC00D31A41F28832934201D9032353E02D4BD0
:101ABC005B6803F00C027B685B689B009A42EBD17D
:101ACC00274B1B6803F007033A689A4210D2244B49
:101ADC001B6823F0070222493B6813430B60204B21
:101AEC001B6803F007033A689A4201D0012332E0E5
:101AFC007B681B6803F00403002B08D0194B5B6850
:101B0C0023F4E0627B68DB68164913434B607B6807
:101B1C001B6803F00803002B09D0124B5B6823F4FD
:101B2C0060527B681B69DB000E4913434B6000F06D
:101B3C0021F802460B4B5B681B0903F00F030A49A3
:101B4C00CB5C22FA03F3094A1360094B1B68184655
:101B5C00FFF79CF9002318461037BD4680BD00BF27
:101B6C000020024000100240583300080000002002
:101B7C000400002080B487B000AF0023FB6000237A
:101B8C00BB6000237B6100237B6000233B611E4B09
:101B9C005B68FB60FB6803F00C03042B02D0082B82
:101BAC0003D027E0194B3B6127E0FB689B0C03F04B
:101BBC000F03174AD35C7B60FB6803F48033002B64
:101BCC0010D0114B5B685B0C03F00103114AD35C22
:101BDC00BB607B680D4A03FB02F2BB68B2FBF3F3FC
:101BEC007B6104E07B680C4A02FB03F37B617B693D
:101BFC003B6102E0054B3B6100BF3B6918461C375B
:101C0C00BD4680BC704700BF0010024000127A0035
:101C1C00703300088033000800093D0080B400AF29
:101C2C00024B1B681846BD4680BC70470000002064
:101C3C0080B500AFFFF7F2FF0246054B5B681B0A4D
:101C4C0003F007030349CB5C22FA03F3184680BD6B
:101C5C00001002406833000880B500AFFFF7DEFFCC
:101C6C000246054B5B68DB0A03F007030349CB5CB8
:101C7C0022FA03F3184680BD0010024068330008B6
:101C8C0080B485B000AF78600A4B1B680A4AA2FB8F
:101C9C0003235B0A7A6802FB03F3FB6000BFFB685B
:101CAC005A1EFA60002BF9D100BF00BF1437BD4695
:101CBC0080BC704700000020D34D621080B582B00C
:101CCC0000AF78607B68002B01D1012341E07B6879
:101CDC0093F83D30DBB2002B06D17B68002283F8F1
:101CEC003C207868FEF790FF7B68022283F83D2049
:101CFC007B681A687B6804331946104600F056FA64
:101D0C007B68012283F846207B68012283F83E2001
:101D1C007B68012283F83F207B68012283F84020F6
:101D2C007B68012283F841207B68012283F84220E2
:101D3C007B68012283F843207B68012283F84420CE
:101D4C007B68012283F845207B68012283F83D20C3
:101D5C00002318460837BD4680BD000080B485B00E
:101D6C0000AF78607B6893F83D30DBB2012B01D07B
:101D7C00012335E07B68022283F83D207B681B68D9
:101D8C00DA687B681B6842F00102DA607B681B68CA
:101D9C00164A934209D07B681B68B3F1804F04D07C
:101DAC007B681B68124A934211D17B681B689B6845
:101DBC0003F00703FB60FB68062B10D07B681B68E5
:101DCC001A687B681B6842F001021A6007E07B68A6
:101DDC001B681A687B681B6842F001021A600023BA
:101DEC0018461437BD4680BC704700BF002C01401C
:101DFC000004004080B584B000AF78607B681B683D
:101E0C00DB68FB607B681B681B69BB60BB6803F00D
:101E1C000203002B20D0FB6803F00203002B1BD025
:101E2C007B681B686FF002021A617B6801221A77CB
:101E3C007B681B689B6903F00303002B03D0786855
:101E4C0000F098F905E0786800F08BF9786800F0FC
:101E5C009AF97B6800221A77BB6803F00403002B05
:101E6C0020D0FB6803F00403002B1BD07B681B689D
:101E7C006FF004021A617B6802221A777B681B6878
:101E8C009B6903F44073002B03D0786800F072F95F
:101E9C0005E0786800F065F9786800F074F97B6803
:101EAC0000221A77BB6803F00803002B20D0FB68D4
:101EBC0003F00803002B1BD07B681B686FF0080233
:101ECC001A617B6804221A777B681B68DB6903F054
:101EDC000303002B03D0786800F04CF905E0786818
:101EEC0000F03FF9786800F04EF97B6800221A7711
:101EFC00BB6803F01003002B20D0FB6803F0100329
:101F0C00002B1BD07B681B686FF010021A617B687A
:101F1C0008221A777B681B68DB6903F44073002B7B
:101F2C0003D0786800F026F905E0786800F019F91C
:101F3C00786800F028F97B6800221A77BB6803F0F8
:101F4C000103002B0CD0FB6803F00103002B07D01E
:101F5C007B681B686FF001021A617868FEF744FF1A
:101F6C00BB6803F08003002B0CD0FB6803F08003EC
:101F7C00002B07D07B681B686FF080021A617868B1
:101F8C0000F06FFABB6803F04003002B0CD0FB6829
:101F9C0003F04003002B07D07B681B686FF04002F6
:101FAC001A61786800F0F8F8BB6803F02003002B86
:101FBC000CD0FB6803F02003002B07D07B681B6858
:101FCC006FF020021A61786800F042FA00BF1037F7
:101FDC00BD4680BD80B584B000AF78603960002309
:101FEC00FB737B6893F83C30012B01D10223B4E0E6
:101FFC007B68012283F83C207B68022283F83D2019
:10200C007B681B689B68BB60BB6823F07703BB6075
:10201C00BB6823F47F43BB607B681B68BA689A601B
:10202C003B681B68B3F5005F3ED0B3F5005F00F270
:10203C008780B3F5805F00F08680B3F5805F7FD832
:10204C00702B1AD0702B7BD8602B50D0602B77D88C
:10205C00502B3CD0502B73D8402B58D0402B6FD8E2
:10206C00302B64D0302B6BD8202B60D0202B67D832
:10207C00002B5CD0102B5AD062E07B6818683B6850
:10208C0099683B685A683B68DB6800F06AF97B68C2
:10209C001B689B68BB60BB6843F07703BB607B68C5
:1020AC001B68BA689A604FE07B6818683B6899684F
:1020BC003B685A683B68DB6800F053F97B681B6827
:1020CC009A687B681B6842F480429A603CE07B68AB
:1020DC0018683B6859683B68DB681A4600F0CAF818
:1020EC007B681B685021184600F021F92CE07B68B6
:1020FC0018683B6859683B68DB681A4600F0E8F8DA
:10210C007B681B686021184600F011F91CE07B68A5
:10211C0018683B6859683B68DB681A4600F0AAF8F7
:10212C007B681B684021184600F001F90CE07B68C5
:10213C001A683B681B681946104600F0F8F803E073
:10214C000123FB7300E000BF7B68012283F83D2074
:10215C007B68002283F83C20FB7B18461037BD4679
:10216C0080BD80B483B000AF786000BF0C37BD4633
:10217C0080BC704780B483B000AF786000BF0C3770
:10218C00BD4680BC704780B483B000AF786000BFA0
:10219C000C37BD4680BC704780B483B000AF78600C
:1021AC0000BF0C37BD4680BC7047000080B485B0C2
:1021BC0000AF786039607B681B68FB607B682B4ADA
:1021CC00934207D07B68B3F1804F03D07B68284AD9
:1021DC00934208D1FB6823F07003FB603B685B689B
:1021EC00FA681343FB607B68204A934207D07B68F4
:1021FC00B3F1804F03D07B681D4A934208D1FB6832
:10220C0023F44073FB603B68DB68FA681343FB60A4
:10221C00FB6823F080023B685B691343FB607B68BF
:10222C00FA681A603B689A687B68DA623B681A68DD
:10223C007B689A627B680D4A934203D13B681A69AA
:10224C007B681A637B6801225A617B681B6903F007
:10225C000103002B05D07B681B6923F001027B680E
:10226C001A6100BF1437BD4680BC7047002C01407A
:10227C000004004080B487B000AFF860B9607A60A9
:10228C00FB681B6A7B61FB681B6A23F00102FB681D
:10229C001A62FB689B693B613B6923F0F0033B616D
:1022AC007B681B013A6913433B617B6923F00A038A
:1022BC007B617A69BB6813437B61FB683A699A61FD
:1022CC00FB687A691A6200BF1C37BD4680BC704738
:1022DC0080B487B000AFF860B9607A60FB681B6AA5
:1022EC007B61FB681B6A23F01002FB681A62FB68B7
:1022FC009B693B613B6923F470433B617B681B0327
:10230C003A6913433B617B6923F0A0037B61BB6893
:10231C001B017A6913437B61FB683A699A61FB681C
:10232C007A691A6200BF1C37BD4680BC704780B406
:10233C0085B000AF786039607B689B68FB60FB6898
:10234C0023F07003FB603A68FB68134343F0070308
:10235C00FB607B68FA689A6000BF1437BD4680BC8E
:10236C00704780B487B000AFF860B9607A603B60AA
:10237C00FB689B687B617B6923F47F437B613B68D3
:10238C001A027B681A43BB6813437A6913437B6157
:10239C00FB687A699A6000BF1C37BD4680BC7047E9
:1023AC0080B485B000AF786039607B6893F83C30BE
:1023BC00012B01D1022341E07B68012283F83C20F0
:1023CC007B68022283F83D207B681B685B68FB609E
:1023DC007B681B689B68BB60FB6823F07003FB6029
:1023EC003B681B68FA681343FB607B681B68FA68E0
:1023FC005A607B681B68144A934209D07B681B683F
:10240C00B3F1804F04D07B681B68104A93420CD107
:10241C00BB6823F08003BB603B685B68BA681343FE
:10242C00BB607B681B68BA689A607B68012283F882
:10243C003D207B68002283F83C200023184614378B
:10244C00BD4680BC704700BF002C0140000400401A
:10245C0080B483B000AF786000BF0C37BD4680BC41
:10246C00704780B483B000AF786000BF0C37BD46B6
:10247C0080BC704780B582B000AF78607B68002B61
:10248C0001D1012342E07B6893F84130DBB2002B91
:10249C0006D17B68002283F840207868FEF7D8FBD1
:1024AC007B68242283F841207B681B68DA687B6890
:1024BC001B6822F40052DA60786800F071F97B68CE
:1024CC001B681A697B681B6822F490421A617B684E
:1024DC001B685A697B681B6822F02A025A617B6868
:1024EC001B68DA687B681B6842F40052DA607B6810
:1024FC0000225A647B68202283F841207B682022CA
:10250C0083F842207B6800225A6300231846083760
:10251C00BD4680BD80B58AB002AFF860B9603B6043
:10252C001346FB8000237B61FB6893F84130DBB2E0
:10253C00202B75D1BB68002B02D0FB88002B01D15E
:10254C0001236EE0FB6800225A64FB68212283F8A9
:10255C004120FEF7DDFC7861FB68FA889A84FB6801
:10256C00FA88DA84FB689B68B3F5805F08D1FB6856
:10257C001B69002B04D10023FB61BB68BB6103E02A
:10258C00BB68FB610023BB612EE03B6800937B6959
:10259C0000228021F86800F048F80346002B05D093
:1025AC00FB68202283F8412003233AE0FB69002BCF
:1025BC000BD1BB691B881A46FB681B68C2F3080267
:1025CC005A60BB690233BB6107E0FB691A78FB6890
:1025DC001B685A60FB690133FB61FB68DB8C9BB2A7
:1025EC00013B9AB2FB68DA84FB68DB8C9BB2002B54
:1025FC00CBD13B6800937B6900224021F86800F046
:10260C0014F80346002B05D0FB68202283F84120E8
:10261C00032306E0FB68202283F84120002300E01E
:10262C00022318462037BD4680BD80B586B000AF6A
:10263C00F860B9603B601346FB713BE03B6AB3F159
:10264C00FF3F37D0FEF764FC02463B68D31A3A6A68
:10265C009A4202D33B6A002B01D103233AE0FB6878
:10266C001B68DB6803F00403002B23D0BB68802BB2
:10267C0020D0BB68402B1DD0FB681B681B6803F087
:10268C000803082B16D100237B61FB681B681B68B1
:10269C007B61FB681B685B687B617B69F86800F099
:1026AC001DF8FB6808225A64FB68002283F840205E
:1026BC0001230FE0FB681B681A68BB681340BA68FB
:1026CC009A420CBF01230023DBB21A46FB799A42D3
:1026DC00B4D0002318461837BD4680BD80B495B0E1
:1026EC0000AF78607B681B680C337B637B6B53E8B3
:1026FC00003F3B633B6B23F49073FB647B681B686C
:10270C000C33FA6C3A64FB63F96B3A6C41E80023C6
:10271C00BB63BB6B002BE5D17B681B6814333B623E
:10272C003B6A53E8003FFB61FB6923F00103BB6488
:10273C007B681B681433BA6CFA62BB62B96AFA6ABA
:10274C0041E800237B627B6A002BE5D17B681B6B25
:10275C00012B19D17B681B680C33FB60FB6853E8B9
:10276C00003FBB60BB6823F010037B647B681B6875
:10277C000C337A6CBA617B617969BA6941E80023E0
:10278C003B613B69002BE5D17B68202283F842201A
:10279C007B6800221A6300BF5437BD4680BC70476B
:1027AC0080B584B000AF78607B681B681B6923F42C
:1027BC0040517B68DA687B681B680A431A617B6846
:1027CC009A687B681B691A437B685B691343BB601F
:1027DC007B681B68DB6823F4B05323F00C037A6826
:1027EC001268B9680B43D3607B681B685B6923F480
:1027FC0040717B689A697B681B680A435A617B68E5
:10280C001B682C4A934203D1FFF726FAF86002E0CA
:10281C00FFF70EFAF860FA6813469B0013449A000F
:10282C001A447B685B689B00B2FBF3F3224AA2FB61
:10283C0003235B091901FA6813469B0013449A00A1
:10284C001A447B685B689B00B2FBF3F21A4BA3FB48
:10285C0002035B09642000FB03F3D31A1B01323320
:10286C00154AA2FB03235B0903F0F0031944FA6831
:10287C0013469B0013449A001A447B685B689B00C8
:10288C00B2FBF3F20C4BA3FB02035B09642000FBCD
:10289C0003F3D31A1B013233074AA2FB03235B0950
:1028AC0003F00F027B681B680A449A6000BF103764
:1028BC00BD4680BD003801401F85EB51024B0146DF
:1028CC00186800F02DB800BF0C000020024B014628
:1028DC00186800F017B900BF0C00002070B50F4E3F
:1028EC000C463168054611B900F0D0F8306021462D
:1028FC00284600F0CBF8431C03D14FF0FF342046A0
:10290C0070BDC41C24F00304A042F8D0211A284640
:10291C0000F0BCF80130F2D1EFE700BF2005002039
:10292C002DE9F843CD1C25F0030508350C2D38BFD7
:10293C000C25002D064601DBA94204D90C2333607B
:10294C000020BDE8F883DFF8D48000F069F8D8F8EF
:10295C0000301C4644BB29463046FFF7BFFF431CE2
:10296C00044658D1D8F800402746002F43D1002CFC
:10297C004BD023683946304604EB030900F086F847
:10298C00814542D1216830466D1A2946FFF7A6FFD2
:10299C0001303AD023682B442360D8F800305A68B1
:1029AC0062BBC8F800700FE02268521B20D40B2ABF
:1029BC0017D96119A342256018BF5960636808BF15
:1029CC00C8F8001062514B60304600F02FF804F14B
:1029DC000B00231D20F00700C21A1CBF1B1AA350AA
:1029EC00AFE76268A3420CBFC8F800205A60EBE75F
:1029FC0023466468AEE73C467F68B6E71A465B68D8
:102A0C00A342FBD100235360DEE70C233046336036
:102A1C0000F00CF894E70560D6E700BF2405002011
:102A2C00014800F06DB800BF64060020014800F0BA
:102A3C0068B800BF640600200EB46FF0004110B5FA
:102A4C0000249DB01FAB0290069007910491094899
:102A5C00094953F8042B0591006802A901931B94B2
:102A6C0000F0F4F8029B1C701DB0BDE8104003B0E0
:102A7C00704700BF0C0000200802FFFF0346024411
:102A8C00934200D1704703F8011BF9E738B50023D6
:102A9C00054D044608462B60FEF76AF9431C02D12B
:102AAC002B6803B1236038BD60060020014B186809
:102ABC00704700BF0C00002070B500260C4D0D4C6B
:102ACC00641BA410A64209D100F0B8FB00260A4DE5
:102ADC000A4C641BA410A64205D170BD55F8043BEA
:102AEC0098470136EEE755F8043B98470136F2E774
:102AFC00C0330008C0330008C0330008C4330008DA
:102B0C007047704738B50546002940D051F8043C51
:102B1C000C1F002BB8BFE418FFF782FF1C4A136888
:102B2C0033B9636014602846BDE83840FFF77EBFB8
:102B3C00A34208D9206821188B4201BF19685B6831
:102B4C0009182160EDE71A465B680BB1A342FAD96C
:102B5C0011685018A0420BD12068014450188342D0
:102B6C001160E0D118685B68084410605360DAE7C4
:102B7C0002D90C232B60D6E7206821188B4201BFA9
:102B8C0019685B680918216063605460CBE738BD35
:102B9C00240500202DE9F0471F468E688246BE4270
:102BAC000C4690460B682DD8B1F90C2012F4906F9E
:102BBC0026D06569096905EB4505A3EB010905EB11
:102BCC00D5757B1C4B446D109D4238BF1D4653057B
:102BDC0027D52946FFF7A4FE064660B34A4621696D
:102BEC0000F0E8FAA38923F4906343F08003A381F7
:102BFC0026614E4426603E466561A5EB0905A5603D
:102C0C00BE4200D93E4632464146206800F0AAFA40
:102C1C000020A3689B1BA360236833442360BDE89A
:102C2C00F0872A4600F0D4FA06460028E0D1504638
:102C3C002169FFF767FF0C23CAF80030A3894FF016
:102C4C00FF3043F04003A381E9E700002DE9F04F8A
:102C5C0098468B8907461B060D4614469DB010D529
:102C6C000B6973B94021FFF75BFE2860286130B90E
:102C7C000C233B604FF0FF301DB0BDE8F08F4023BC
:102C8C006B610023099320238DF8293030234FF0FA
:102C9C000109CDF80C80DFF898818DF82A30234695
:102CAC009A4613F8012B0AB1252AF9D1BAEB040B79
:102CBC000BD05B46224629463846FFF76BFF0130A6
:102CCC0000F0A780099A5A4409929AF80030002B18
:102CDC0000F09F8000234FF0FF32CDE905230AF16D
:102CEC00010A049307938DF853301A935446052226
:102CFC0014F8011B4E4800F04FFA049AD8B9D006CC
:102D0C0044BF20238DF85330110744BF2B238DF87B
:102D1C0053309AF800302A2B15D0544600204FF02F
:102D2C000A0C079A214611F8013B303B092B4BD971
:102D3C00B0B1079214E0A0EB080309FA03F31343B4
:102D4C00A2460493D2E7039B191D1B680391002B29
:102D5C00BBBF5B4242F0020207930793B8BF0492D9
:102D6C0023782E2B0AD163782A2B32D1039B023481
:102D7C001A1D1B68039243EAE3730593DFF8B4A0B2
:102D8C0003225046217800F007FA38B14022049B08
:102D9C00A0EB0A00824013430134049314F8011B86
:102DAC00062225488DF8281000F0F6F9002836D0B8
:102DBC00224B1BBB039B073323F0070308330393FE
:102DCC00099B334409936AE70C4601200CFB023241
:102DDC00A8E700234FF00A0C19460134059320464E
:102DEC0010F8012B303A092A03D9002BC6D00591D3
:102DFC00C4E7044601230CFB0121F0E703AB00936D
:102E0C002A4638460E4B04A9AFF30080421C0646F6
:102E1C00D6D1AB895B063FF52DAF09982CE703ABF8
:102E2C0000932A463846064B04A900F07DF8EDE7DE
:102E3C0082330008883300088C330008000000003F
:102E4C00A12B00082DE9F047164698468A680B69B5
:102E5C0007469342B8BF1346336091F843200C46A3
:102E6C00DDF820900AB1013333602368990642BF24
:102E7C00336802333360256815F0060506D104F17A
:102E8C00190AE36832689B1AAB422BDC94F8433086
:102E9C002268003B18BF0123920630D441463846C5
:102EAC0004F14302C847013023D02368226903F0A0
:102EBC000603042B14BF002533684FF0000608BF2F
:102ECC00E56804F11A0408BFED1A54F8123C08BF67
:102EDC0025EAE5759342C4BF9B1AED18B5421AD189
:102EEC00002008E00123524641463846C8470130CD
:102EFC0003D14FF0FF30BDE8F0870135C1E730203A
:102F0C00E11881F843005A1C94F84510224402330E
:102F1C0082F84310C2E70123224641463846C8478F
:102F2C000130E6D00136D9E72DE9FF470F7E9146F7
:102F3C00782F80460C469A460C9E01F1430207D826
:102F4C00622F0AD8002F00F0D180582F00F0B880E3
:102F5C0004F1420684F842703AE0A7F16303152BA2
:102F6C00F6D801A151F823F0CD2F0008E12F00086D
:102F7C005D2F00085D2F00085D2F00085D2F0008F5
:102F8C00E12F00085D2F00085D2F00085D2F000861
:102F9C005D2F0008DF3000080B3000089930000866
:102FAC005D2F00085D2F0008013100085D2F00081F
:102FBC000B3000085D2F00085D2F0008A1300008C1
:102FCC0033681A1D1B68326004F1420684F84230E3
:102FDC0001239CE033682068191D3160060601D579
:102FEC001D6803E04506FBD5B3F90050002D03DA4C
:102FFC002D236D4284F843300A23584811E0216890
:10300C003368080653F8045B02D4490648BFADB2D6
:10301C006F2F336014BF0A2308235048002184F813
:10302C0043106668002EA66005DB21682E4321F054
:10303C00040121604BD01646B5FBF3F103FB11578D
:10304C00C75D06F8017D2F46BB420D46F4D9082B0F
:10305C000BD12368DF0708D5236961689942DEBF6D
:10306C00302306F8013C06F1FF36921B22614B46D9
:10307C0021464046CDF800A003AAFFF7E3FE01303D
:10308C004AD14FF0FF3004B0BDE8F087236843F01D
:10309C00200323607827324884F845702368316810
:1030AC001F0651F8045B02D45F0648BFADB2316015
:1030BC00D90744BF43F0200323601DB11023ADE7B3
:1030CC002648E9E7236823F020032360F6E7164639
:1030DC00BDE733682568181D616930602E061B68D2
:1030EC0001D5196002E06806FBD51980002316464D
:1030FC002361BCE7336800211A1D32601E686268C8
:10310C00304600F049F808B1801B606063682361A9
:10311C00002384F84330AAE73246494640462369E7
:10312C00D0470130ADD023689B0713D4E068039BD4
:10313C009842B8BF1846A6E7012332464946404696
:10314C00D04701309DD00135E36803995B1AAB423F
:10315C00F2DCEBE7002504F11906F5E793330008E0
:10316C00A4330008884210B501EB020402D9844252
:10317C00234607D8431EA14208D011F8012B03F8AF
:10318C00012FF8E7014602448A4200D110BD13F822
:10319C00014D02F8014DF7E7034610B5C9B20244E0
:1031AC009342184601D1002003E0047801338C428D
:1031BC00F6D110BD0A44914200F1FF3300D17047A3
:1031CC0010B511F8014B914203F8014FF9D110BD24
:1031DC002DE9F041074614460D4621B91146BDE8CC
:1031EC00F041FFF79DBB2AB9FFF78CFC254628461A
:1031FC00BDE8F08100F01AF88442064602D8B4EB20
:10320C00500FF4D821463846FFF78AFB804608B9A0
:10321C004546ECE7B4422246294628BF3246FFF722
:10322C00C9FF29463846FFF76DFCF1E751F8043C1D
:10323C00181F002BBCBF0B58C0187047F8B500BF47
:10324C00F8BC08BC9E467047F8B500BFF8BC08BC7B
:04325C009E467047D3
:1032600043757272656E74207469636B3A202536FB
:103270006C640D0A0A0000005441534B2031205267
:1032800045442043414C4C45442041542025366C54
:1032900064205449434B200D0A0000005441534B15
:1032A00020322059454C4C4F572043414C4C45440B
:1032B0002041542025366C64205449434B200D0A8C
:1032C000000000005441534B203320475245454EE7
:1032D0002043414C4C45442041542025366C642009
:1032E0005449434B200D0A005441534B203420577E
:1032F000484954452043414C4C45442041542025E5
:10330000366C64205449434B200D0A005441534B02
:10331000203520424C55452043414C4C45442041EA
:10332000542025366C64205449434B200D0A00007C
:103330005441534B2036204F52414E474520434184
:103340004C4C45442041542025366C64205449435C
:103350004B200D0A000000000000000000000000EB
:10336000010203040607080900000000010203042B
:1033700002030405060708090A0B0C0D0E0F1010B6
:103380000102232D302B2000686C4C0065666745D8
:1033900046470030313233343536373839414243CD
:1033A000444546003031323334353637383961627E
:0833B000636465660000000083
:0833B80094CDFF7F010000002D
:0433C00031010008CF
:0433C4000D010008EF
:1033C80000127A0010000000010000001000002028
:1033D800000000002805002090050020F8050020C6
:1033E80000000000000000000000000000000000D5
:1033F80000000000000000000000000000000000C5
:1034080000000000000000000000000000000000B4
:0C341800000000000000000000000000A8
:0400000508000E21C0
:00000001FF
